{
  "contractName": "LPOOL",
  "abi": [
    {
      "inputs": [
        {
          "internalType": "contract PantherToken",
          "name": "_PNT",
          "type": "address"
        },
        {
          "internalType": "contract USN",
          "name": "_USN",
          "type": "address"
        }
      ],
      "stateMutability": "nonpayable",
      "type": "constructor"
    },
    {
      "inputs": [
        {
          "internalType": "address",
          "name": "",
          "type": "address"
        }
      ],
      "name": "StakingRecord",
      "outputs": [
        {
          "internalType": "uint256",
          "name": "",
          "type": "uint256"
        }
      ],
      "stateMutability": "view",
      "type": "function",
      "constant": true
    },
    {
      "inputs": [
        {
          "internalType": "uint256",
          "name": "",
          "type": "uint256"
        }
      ],
      "name": "investors",
      "outputs": [
        {
          "internalType": "address",
          "name": "",
          "type": "address"
        }
      ],
      "stateMutability": "view",
      "type": "function",
      "constant": true
    },
    {
      "inputs": [],
      "name": "pnt",
      "outputs": [
        {
          "internalType": "contract PantherToken",
          "name": "",
          "type": "address"
        }
      ],
      "stateMutability": "view",
      "type": "function",
      "constant": true
    },
    {
      "inputs": [],
      "name": "usn",
      "outputs": [
        {
          "internalType": "contract USN",
          "name": "",
          "type": "address"
        }
      ],
      "stateMutability": "view",
      "type": "function",
      "constant": true
    },
    {
      "inputs": [
        {
          "internalType": "uint256",
          "name": "amount",
          "type": "uint256"
        }
      ],
      "name": "Stake",
      "outputs": [],
      "stateMutability": "nonpayable",
      "type": "function"
    },
    {
      "inputs": [],
      "name": "Unstake",
      "outputs": [],
      "stateMutability": "nonpayable",
      "type": "function"
    },
    {
      "inputs": [],
      "name": "RewardTokens",
      "outputs": [],
      "stateMutability": "nonpayable",
      "type": "function"
    }
  ],
  "bytecode": "0x60806040523480156200001157600080fd5b5060405162000f3038038062000f308339818101604052810190620000379190620001c4565b33600260006101000a81548173ffffffffffffffffffffffffffffffffffffffff021916908373ffffffffffffffffffffffffffffffffffffffff160217905550816000806101000a81548173ffffffffffffffffffffffffffffffffffffffff021916908373ffffffffffffffffffffffffffffffffffffffff16021790555080600160006101000a81548173ffffffffffffffffffffffffffffffffffffffff021916908373ffffffffffffffffffffffffffffffffffffffff16021790555050506200020b565b600080fd5b600073ffffffffffffffffffffffffffffffffffffffff82169050919050565b6000620001338262000106565b9050919050565b6000620001478262000126565b9050919050565b62000159816200013a565b81146200016557600080fd5b50565b60008151905062000179816200014e565b92915050565b60006200018c8262000126565b9050919050565b6200019e816200017f565b8114620001aa57600080fd5b50565b600081519050620001be8162000193565b92915050565b60008060408385031215620001de57620001dd62000101565b5b6000620001ee8582860162000168565b92505060206200020185828601620001ad565b9150509250929050565b610d15806200021b6000396000f3fe608060405234801561001057600080fd5b506004361061007d5760003560e01c80633feb5f2b1161005b5780633feb5f2b146100da5780637538eecf1461010a578063c7fab8b714610114578063d00ece391461011e5761007d565b8063227a473b1461008257806336c1ad311461009e5780633d511b4f146100bc575b600080fd5b61009c60048036038101906100979190610807565b61014e565b005b6100a661039a565b6040516100b391906108b3565b60405180910390f35b6100c46103be565b6040516100d191906108ef565b60405180910390f35b6100f460048036038101906100ef9190610807565b6103e4565b604051610101919061092b565b60405180910390f35b610112610423565b005b61011c6105cc565b005b61013860048036038101906101339190610972565b6107b4565b60405161014591906109ae565b60405180910390f35b60008111610191576040517f08c379a000000000000000000000000000000000000000000000000000000000815260040161018890610a26565b60405180910390fd5b600160009054906101000a900473ffffffffffffffffffffffffffffffffffffffff1673ffffffffffffffffffffffffffffffffffffffff166323b872dd3330846040518463ffffffff1660e01b81526004016101f093929190610a46565b6020604051808303816000875af115801561020f573d6000803e3d6000fd5b505050506040513d601f19601f820116820180604052508101906102339190610ab5565b5080600360003373ffffffffffffffffffffffffffffffffffffffff1673ffffffffffffffffffffffffffffffffffffffff16815260200190815260200160002060008282546102839190610b11565b92505081905550600460003373ffffffffffffffffffffffffffffffffffffffff1673ffffffffffffffffffffffffffffffffffffffff16815260200190815260200160002060009054906101000a900460ff16610397576005339080600181540180825580915050600190039060005260206000200160009091909190916101000a81548173ffffffffffffffffffffffffffffffffffffffff021916908373ffffffffffffffffffffffffffffffffffffffff1602179055506001600460003373ffffffffffffffffffffffffffffffffffffffff1673ffffffffffffffffffffffffffffffffffffffff16815260200190815260200160002060006101000a81548160ff0219169083151502179055505b50565b60008054906101000a900473ffffffffffffffffffffffffffffffffffffffff1681565b600160009054906101000a900473ffffffffffffffffffffffffffffffffffffffff1681565b600581815481106103f457600080fd5b906000526020600020016000915054906101000a900473ffffffffffffffffffffffffffffffffffffffff1681565b6000600360003373ffffffffffffffffffffffffffffffffffffffff1673ffffffffffffffffffffffffffffffffffffffff16815260200190815260200160002054116104a5576040517f08c379a000000000000000000000000000000000000000000000000000000000815260040161049c90610bb3565b60405180910390fd5b600160009054906101000a900473ffffffffffffffffffffffffffffffffffffffff1673ffffffffffffffffffffffffffffffffffffffff1663a9059cbb33600360003373ffffffffffffffffffffffffffffffffffffffff1673ffffffffffffffffffffffffffffffffffffffff168152602001908152602001600020546040518363ffffffff1660e01b8152600401610541929190610bd3565b6020604051808303816000875af1158015610560573d6000803e3d6000fd5b505050506040513d601f19601f820116820180604052508101906105849190610ab5565b506000600360003373ffffffffffffffffffffffffffffffffffffffff1673ffffffffffffffffffffffffffffffffffffffff16815260200190815260200160002081905550565b600260009054906101000a900473ffffffffffffffffffffffffffffffffffffffff1673ffffffffffffffffffffffffffffffffffffffff163373ffffffffffffffffffffffffffffffffffffffff161461065c576040517f08c379a000000000000000000000000000000000000000000000000000000000815260040161065390610c48565b60405180910390fd5b60005b6005805490508110156107b15760006005828154811061068257610681610c68565b5b9060005260206000200160009054906101000a900473ffffffffffffffffffffffffffffffffffffffff1690506000600360008373ffffffffffffffffffffffffffffffffffffffff1673ffffffffffffffffffffffffffffffffffffffff168152602001908152602001600020549050600081111561079c5760008054906101000a900473ffffffffffffffffffffffffffffffffffffffff1673ffffffffffffffffffffffffffffffffffffffff1663a9059cbb83836040518363ffffffff1660e01b8152600401610757929190610bd3565b6020604051808303816000875af1158015610776573d6000803e3d6000fd5b505050506040513d601f19601f8201168201806040525081019061079a9190610ab5565b505b505080806107a990610c97565b91505061065f565b50565b60036020528060005260406000206000915090505481565b600080fd5b6000819050919050565b6107e4816107d1565b81146107ef57600080fd5b50565b600081359050610801816107db565b92915050565b60006020828403121561081d5761081c6107cc565b5b600061082b848285016107f2565b91505092915050565b600073ffffffffffffffffffffffffffffffffffffffff82169050919050565b6000819050919050565b600061087961087461086f84610834565b610854565b610834565b9050919050565b600061088b8261085e565b9050919050565b600061089d82610880565b9050919050565b6108ad81610892565b82525050565b60006020820190506108c860008301846108a4565b92915050565b60006108d982610880565b9050919050565b6108e9816108ce565b82525050565b600060208201905061090460008301846108e0565b92915050565b600061091582610834565b9050919050565b6109258161090a565b82525050565b6000602082019050610940600083018461091c565b92915050565b61094f8161090a565b811461095a57600080fd5b50565b60008135905061096c81610946565b92915050565b600060208284031215610988576109876107cc565b5b60006109968482850161095d565b91505092915050565b6109a8816107d1565b82525050565b60006020820190506109c3600083018461099f565b92915050565b600082825260208201905092915050565b7f4455444520534f4d452046494e49544520544f4b454e204e4f54203000000000600082015250565b6000610a10601c836109c9565b9150610a1b826109da565b602082019050919050565b60006020820190508181036000830152610a3f81610a03565b9050919050565b6000606082019050610a5b600083018661091c565b610a68602083018561091c565b610a75604083018461099f565b949350505050565b60008115159050919050565b610a9281610a7d565b8114610a9d57600080fd5b50565b600081519050610aaf81610a89565b92915050565b600060208284031215610acb57610aca6107cc565b5b6000610ad984828501610aa0565b91505092915050565b7f4e487b7100000000000000000000000000000000000000000000000000000000600052601160045260246000fd5b6000610b1c826107d1565b9150610b27836107d1565b9250827fffffffffffffffffffffffffffffffffffffffffffffffffffffffffffffffff03821115610b5c57610b5b610ae2565b5b828201905092915050565b7f596f75206172656e74207374616b696e6720746f20756e7374616b6500000000600082015250565b6000610b9d601c836109c9565b9150610ba882610b67565b602082019050919050565b60006020820190508181036000830152610bcc81610b90565b9050919050565b6000604082019050610be8600083018561091c565b610bf5602083018461099f565b9392505050565b7f596f75206172656e74206f776e65720000000000000000000000000000000000600082015250565b6000610c32600f836109c9565b9150610c3d82610bfc565b602082019050919050565b60006020820190508181036000830152610c6181610c25565b9050919050565b7f4e487b7100000000000000000000000000000000000000000000000000000000600052603260045260246000fd5b6000610ca2826107d1565b91507fffffffffffffffffffffffffffffffffffffffffffffffffffffffffffffffff8203610cd457610cd3610ae2565b5b60018201905091905056fea2646970667358221220f15e543500dd3ff499681039c4644261f9a57b680a515198f0cbfbee367639f864736f6c634300080e0033",
  "immutableReferences": {},
  "source": "// SPDX-License-Identifier: MIT\r\npragma solidity >=0.4.22 <0.9.0;\r\n\r\nimport \"./PantherToken.sol\";\r\nimport \"./USN.sol\";\r\n\r\ncontract LPOOL {\r\n    PantherToken public pnt;\r\n    USN public usn;\r\n    address owner;\r\n\r\n    constructor (PantherToken _PNT ,USN _USN ) {\r\n        owner = msg.sender;\r\n        pnt = _PNT;\r\n        usn = _USN;\r\n    }\r\n\r\n    modifier OnlyOwner {\r\n        require(msg.sender == owner , \"You arent owner\");\r\n        _;\r\n    }\r\n\r\n    mapping(address => uint) public StakingRecord;\r\n    mapping(address => bool) POOLPASS;\r\n\r\n    address[] public investors;\r\n\r\n    function Stake(uint amount) public {\r\n        require(amount > 0, \"DUDE SOME FINITE TOKEN NOT 0\");\r\n\r\n        usn.transferFrom(msg.sender, address(this), amount);\r\n\r\n        StakingRecord[msg.sender] += amount;\r\n\r\n        if(!POOLPASS[msg.sender]) {\r\n            investors.push(msg.sender);\r\n            POOLPASS[msg.sender] = true;\r\n        }\r\n    }\r\n\r\n    function Unstake() public {\r\n        require(StakingRecord[msg.sender] > 0 , \"You arent staking to unstake\");\r\n        usn.transfer(msg.sender, StakingRecord[msg.sender]);\r\n        StakingRecord[msg.sender] = 0;\r\n    }\r\n\r\n    function RewardTokens() public OnlyOwner{\r\n        for (uint i = 0 ; i < investors.length ; i++) {\r\n            address investor =  investors[i];\r\n            uint reward = StakingRecord[investor];\r\n            if (reward > 0) {\r\n                pnt.transfer(investor, reward);\r\n            }\r\n        } \r\n    }\r\n\r\n    \r\n}",
  "sourcePath": "C:\\tai_jutsu\\All_Web3\\stakingprotocol\\smart-contracts\\contracts\\LiquidityPool.sol",
  "compiler": {
    "name": "solc",
    "version": "0.8.14+commit.80d49f37.Emscripten.clang"
  },
  "schemaVersion": "3.4.7",
  "updatedAt": "2022-06-15T07:40:26.640Z",
  "networkType": "ethereum",
  "devdoc": {
    "kind": "dev",
    "methods": {},
    "version": 1
  },
  "userdoc": {
    "kind": "user",
    "methods": {},
    "version": 1
  }
}