{
  "contractName": "LPOOL",
  "abi": [
    {
      "inputs": [
        {
          "internalType": "contract PantherToken",
          "name": "_PNT",
          "type": "address"
        },
        {
          "internalType": "contract USN",
          "name": "_USN",
          "type": "address"
        }
      ],
      "stateMutability": "nonpayable",
      "type": "constructor"
    },
    {
      "inputs": [
        {
          "internalType": "uint256",
          "name": "",
          "type": "uint256"
        }
      ],
      "name": "investors",
      "outputs": [
        {
          "internalType": "address",
          "name": "",
          "type": "address"
        }
      ],
      "stateMutability": "view",
      "type": "function",
      "constant": true
    },
    {
      "inputs": [],
      "name": "pnt",
      "outputs": [
        {
          "internalType": "contract PantherToken",
          "name": "",
          "type": "address"
        }
      ],
      "stateMutability": "view",
      "type": "function",
      "constant": true
    },
    {
      "inputs": [],
      "name": "usn",
      "outputs": [
        {
          "internalType": "contract USN",
          "name": "",
          "type": "address"
        }
      ],
      "stateMutability": "view",
      "type": "function",
      "constant": true
    },
    {
      "inputs": [
        {
          "internalType": "uint256",
          "name": "amount",
          "type": "uint256"
        }
      ],
      "name": "Stake",
      "outputs": [],
      "stateMutability": "nonpayable",
      "type": "function"
    },
    {
      "inputs": [],
      "name": "Unstake",
      "outputs": [],
      "stateMutability": "nonpayable",
      "type": "function"
    },
    {
      "inputs": [],
      "name": "RewardTokens",
      "outputs": [],
      "stateMutability": "nonpayable",
      "type": "function"
    }
  ],
  "bytecode": "0x60806040523480156200001157600080fd5b5060405162000e5938038062000e598339818101604052810190620000379190620001c4565b33600260006101000a81548173ffffffffffffffffffffffffffffffffffffffff021916908373ffffffffffffffffffffffffffffffffffffffff160217905550816000806101000a81548173ffffffffffffffffffffffffffffffffffffffff021916908373ffffffffffffffffffffffffffffffffffffffff16021790555080600160006101000a81548173ffffffffffffffffffffffffffffffffffffffff021916908373ffffffffffffffffffffffffffffffffffffffff16021790555050506200020b565b600080fd5b600073ffffffffffffffffffffffffffffffffffffffff82169050919050565b6000620001338262000106565b9050919050565b6000620001478262000126565b9050919050565b62000159816200013a565b81146200016557600080fd5b50565b60008151905062000179816200014e565b92915050565b60006200018c8262000126565b9050919050565b6200019e816200017f565b8114620001aa57600080fd5b50565b600081519050620001be8162000193565b92915050565b60008060408385031215620001de57620001dd62000101565b5b6000620001ee8582860162000168565b92505060206200020185828601620001ad565b9150509250929050565b610c3e806200021b6000396000f3fe608060405234801561001057600080fd5b50600436106100625760003560e01c8063227a473b1461006757806336c1ad31146100835780633d511b4f146100a15780633feb5f2b146100bf5780637538eecf146100ef578063c7fab8b7146100f9575b600080fd5b610081600480360381019061007c91906107a4565b610103565b005b61008b61034f565b6040516100989190610850565b60405180910390f35b6100a9610373565b6040516100b6919061088c565b60405180910390f35b6100d960048036038101906100d491906107a4565b610399565b6040516100e691906108c8565b60405180910390f35b6100f76103d8565b005b610101610581565b005b60008111610146576040517f08c379a000000000000000000000000000000000000000000000000000000000815260040161013d90610940565b60405180910390fd5b600160009054906101000a900473ffffffffffffffffffffffffffffffffffffffff1673ffffffffffffffffffffffffffffffffffffffff166323b872dd3330846040518463ffffffff1660e01b81526004016101a59392919061096f565b6020604051808303816000875af11580156101c4573d6000803e3d6000fd5b505050506040513d601f19601f820116820180604052508101906101e891906109de565b5080600360003373ffffffffffffffffffffffffffffffffffffffff1673ffffffffffffffffffffffffffffffffffffffff16815260200190815260200160002060008282546102389190610a3a565b92505081905550600460003373ffffffffffffffffffffffffffffffffffffffff1673ffffffffffffffffffffffffffffffffffffffff16815260200190815260200160002060009054906101000a900460ff1661034c576005339080600181540180825580915050600190039060005260206000200160009091909190916101000a81548173ffffffffffffffffffffffffffffffffffffffff021916908373ffffffffffffffffffffffffffffffffffffffff1602179055506001600460003373ffffffffffffffffffffffffffffffffffffffff1673ffffffffffffffffffffffffffffffffffffffff16815260200190815260200160002060006101000a81548160ff0219169083151502179055505b50565b60008054906101000a900473ffffffffffffffffffffffffffffffffffffffff1681565b600160009054906101000a900473ffffffffffffffffffffffffffffffffffffffff1681565b600581815481106103a957600080fd5b906000526020600020016000915054906101000a900473ffffffffffffffffffffffffffffffffffffffff1681565b6000600360003373ffffffffffffffffffffffffffffffffffffffff1673ffffffffffffffffffffffffffffffffffffffff168152602001908152602001600020541161045a576040517f08c379a000000000000000000000000000000000000000000000000000000000815260040161045190610adc565b60405180910390fd5b600160009054906101000a900473ffffffffffffffffffffffffffffffffffffffff1673ffffffffffffffffffffffffffffffffffffffff1663a9059cbb33600360003373ffffffffffffffffffffffffffffffffffffffff1673ffffffffffffffffffffffffffffffffffffffff168152602001908152602001600020546040518363ffffffff1660e01b81526004016104f6929190610afc565b6020604051808303816000875af1158015610515573d6000803e3d6000fd5b505050506040513d601f19601f8201168201806040525081019061053991906109de565b506000600360003373ffffffffffffffffffffffffffffffffffffffff1673ffffffffffffffffffffffffffffffffffffffff16815260200190815260200160002081905550565b600260009054906101000a900473ffffffffffffffffffffffffffffffffffffffff1673ffffffffffffffffffffffffffffffffffffffff163373ffffffffffffffffffffffffffffffffffffffff1614610611576040517f08c379a000000000000000000000000000000000000000000000000000000000815260040161060890610b71565b60405180910390fd5b60005b6005805490508110156107665760006005828154811061063757610636610b91565b5b9060005260206000200160009054906101000a900473ffffffffffffffffffffffffffffffffffffffff1690506000600360008373ffffffffffffffffffffffffffffffffffffffff1673ffffffffffffffffffffffffffffffffffffffff16815260200190815260200160002054905060008111156107515760008054906101000a900473ffffffffffffffffffffffffffffffffffffffff1673ffffffffffffffffffffffffffffffffffffffff1663a9059cbb83836040518363ffffffff1660e01b815260040161070c929190610afc565b6020604051808303816000875af115801561072b573d6000803e3d6000fd5b505050506040513d601f19601f8201168201806040525081019061074f91906109de565b505b5050808061075e90610bc0565b915050610614565b50565b600080fd5b6000819050919050565b6107818161076e565b811461078c57600080fd5b50565b60008135905061079e81610778565b92915050565b6000602082840312156107ba576107b9610769565b5b60006107c88482850161078f565b91505092915050565b600073ffffffffffffffffffffffffffffffffffffffff82169050919050565b6000819050919050565b600061081661081161080c846107d1565b6107f1565b6107d1565b9050919050565b6000610828826107fb565b9050919050565b600061083a8261081d565b9050919050565b61084a8161082f565b82525050565b60006020820190506108656000830184610841565b92915050565b60006108768261081d565b9050919050565b6108868161086b565b82525050565b60006020820190506108a1600083018461087d565b92915050565b60006108b2826107d1565b9050919050565b6108c2816108a7565b82525050565b60006020820190506108dd60008301846108b9565b92915050565b600082825260208201905092915050565b7f4455444520534f4d452046494e49544520544f4b454e204e4f54203000000000600082015250565b600061092a601c836108e3565b9150610935826108f4565b602082019050919050565b600060208201905081810360008301526109598161091d565b9050919050565b6109698161076e565b82525050565b600060608201905061098460008301866108b9565b61099160208301856108b9565b61099e6040830184610960565b949350505050565b60008115159050919050565b6109bb816109a6565b81146109c657600080fd5b50565b6000815190506109d8816109b2565b92915050565b6000602082840312156109f4576109f3610769565b5b6000610a02848285016109c9565b91505092915050565b7f4e487b7100000000000000000000000000000000000000000000000000000000600052601160045260246000fd5b6000610a458261076e565b9150610a508361076e565b9250827fffffffffffffffffffffffffffffffffffffffffffffffffffffffffffffffff03821115610a8557610a84610a0b565b5b828201905092915050565b7f596f75206172656e74207374616b696e6720746f20756e7374616b6500000000600082015250565b6000610ac6601c836108e3565b9150610ad182610a90565b602082019050919050565b60006020820190508181036000830152610af581610ab9565b9050919050565b6000604082019050610b1160008301856108b9565b610b1e6020830184610960565b9392505050565b7f596f75206172656e74206f776e65720000000000000000000000000000000000600082015250565b6000610b5b600f836108e3565b9150610b6682610b25565b602082019050919050565b60006020820190508181036000830152610b8a81610b4e565b9050919050565b7f4e487b7100000000000000000000000000000000000000000000000000000000600052603260045260246000fd5b6000610bcb8261076e565b91507fffffffffffffffffffffffffffffffffffffffffffffffffffffffffffffffff8203610bfd57610bfc610a0b565b5b60018201905091905056fea264697066735822122003727bbfbd267766a4fdb34aa804c67616127f9de01dcf25beed9b6f04eeb49c64736f6c634300080e0033",
  "immutableReferences": {},
  "source": "// SPDX-License-Identifier: MIT\r\npragma solidity >=0.4.22 <0.9.0;\r\n\r\nimport \"./PantherToken.sol\";\r\nimport \"./USN.sol\";\r\n\r\ncontract LPOOL {\r\n    PantherToken public pnt;\r\n    USN public usn;\r\n    address owner;\r\n\r\n    constructor (PantherToken _PNT ,USN _USN ) {\r\n        owner = msg.sender;\r\n        pnt = _PNT;\r\n        usn = _USN;\r\n    }\r\n\r\n    modifier OnlyOwner {\r\n        require(msg.sender == owner , \"You arent owner\");\r\n        _;\r\n    }\r\n\r\n    mapping(address => uint) StakingRecord;\r\n    mapping(address => bool) POOLPASS;\r\n\r\n    address[] public investors;\r\n\r\n    function Stake(uint amount) public {\r\n        require(amount > 0, \"DUDE SOME FINITE TOKEN NOT 0\");\r\n\r\n        usn.transferFrom(msg.sender, address(this), amount);\r\n\r\n        StakingRecord[msg.sender] += amount;\r\n\r\n        if(!POOLPASS[msg.sender]) {\r\n            investors.push(msg.sender);\r\n            POOLPASS[msg.sender] = true;\r\n        }\r\n    }\r\n\r\n    function Unstake() public {\r\n        require(StakingRecord[msg.sender] > 0 , \"You arent staking to unstake\");\r\n        usn.transfer(msg.sender, StakingRecord[msg.sender]);\r\n        StakingRecord[msg.sender] = 0;\r\n    }\r\n\r\n    function RewardTokens() public OnlyOwner{\r\n        for (uint i = 0 ; i < investors.length ; i++) {\r\n            address investor =  investors[i];\r\n            uint reward = StakingRecord[investor];\r\n            if (reward > 0) {\r\n                pnt.transfer(investor, reward);\r\n            }\r\n        } \r\n    }\r\n\r\n    \r\n}",
  "sourcePath": "C:\\tai_jutsu\\All_Web3\\stakingprotocol\\smart-contracts\\contracts\\LiquidityPool.sol",
  "compiler": {
    "name": "solc",
    "version": "0.8.14+commit.80d49f37.Emscripten.clang"
  },
  "schemaVersion": "3.4.7",
  "updatedAt": "2022-06-13T10:33:14.145Z",
  "networkType": "ethereum",
  "devdoc": {
    "kind": "dev",
    "methods": {},
    "version": 1
  },
  "userdoc": {
    "kind": "user",
    "methods": {},
    "version": 1
  }
}